:0400000003EF3CF0DE
:10780600000183EF3FF0026E8B9002C08CFF25ECE7
:107816003CF01200026E8B8002C08CFF25EC3CF01F
:107826001200C282C2B2FED7C450046E036AC350AD
:107836000324056E000E0420066E05C001F006C086
:1078460002F012008B82410E016EEE0EE82EFED77C
:10785600012EFCD700D08B92410E016EEE0EE82E63
:10786600FED7012EFCD700D01200000E0C6E0AAE19
:1078760006D0096C0A1ED8B00A2A010E0C6E09C081
:1078860001F00AC002F0036A8E0E046E0CC005F009
:1078960060EC3DF001C009F002C00AF003C00BF035
:1078A600120003500410D8B418D0010E056E04D08F
:1078B600D89003360436052A04AEFAD70350015C85
:1078C60004500258D8A004D00350015E0450025A56
:1078D600D89004320332052EF1D701C001F002C060
:1078E60002F01200000E066E000E056E0350041024
:1078F600D8B41CD0010E076E04D0D89003360436D7
:10790600072A04AEFAD7D890053606360350015C2E
:1079160004500258D8A005D00350015E0450025A04
:107926000580D89004320332072EEDD705C001F04A
:1079360006C002F01200000E066E02AE06D0016C02
:10794600021ED8B0022A010E066E04AE04D0036CE5
:10795600041ED8B0042A03500410D8B418D0010E5F
:10796600056E04D0D89003360436052A04AEFAD73D
:107976000350015C04500258D8A004D00350015EA5
:107986000450025AD89004320332052EF1D706501D
:10799600D8B404D0016C021ED8B0022A01C001F08E
:1079A60002C002F01200000E066E04AE06D0036C92
:1079B600041ED8B0042A010E066E02AE06D0016C73
:1079C600021ED8B0022A010E061A000E086E000E1C
:1079D600076E03500410D8B41CD0010E056E04D0F7
:1079E600D89003360436052A04AEFAD7D89007365F
:1079F60008360350015C04500258D8A005D0035045
:107A0600015E0450025A0780D89004320332052ED4
:107A1600EDD70650D8B404D0076C081ED8B0082A93
:107A260007C001F008C002F0120009C001F00AC048
:107A360002F0000E046E640E036ED6EC3CF001C03C
:107A46000BF002C00CF009C001F00AC002F0000EF3
:107A5600046E640E036E9EEC3CF001C011F002C091
:107A660012F011C001F012C002F0000E046E0A0EF0
:107A7600036E75EC3CF001C00DF002C00EF011C0B3
:107A860001F012C002F0000E046E0A0E036E54ECF2
:107A96003CF001C00FF002C010F00B50300F0DEC9F
:107AA6003CF02E0E0DEC3CF00D50300F0DEC3CF082
:107AB6000F50300F0DEC3CF012000450D8B405D036
:107AC600015002100310D8A40CD0000E016E000E57
:107AD600026E000E036E1200042AD89003320232A0
:107AE6000132000E0114066E000E0214076EFE0E21
:107AF6000314086E065007100810D8B40CD0ECD743
:107B0600042A010E0126000E0222000E0322D8903E
:107B1600033202320132000E0114066E000E021408
:107B2600076EFF0E0314086E065007100810D8B42F
:107B360006D0E6D70406D89001360236033602BED2
:107B460003D0020E0460F6D704A0029ED890043239
:107B5600045003120550D8A4038E01C001F002C0E0
:107B660002F003C003F0120036C001F037C002F085
:107B7600030E046EE80E036ED6EC3CF001C038F03E
:107B860002C039F036C001F037C002F0030E046EB1
:107B9600E80E036E9EEC3CF001C040F002C041F0DE
:107BA60040C001F041C002F0000E046E640E036E88
:107BB600D6EC3CF001C03AF002C03BF040C001F008
:107BC60041C002F0000E046E640E036E9EEC3CF0A3
:107BD60001C040F002C041F040C001F041C002F0D7
:107BE600000E046E0A0E036ED6EC3CF001C03CF0AB
:107BF60002C03DF040C001F041C002F0000E046E2C
:107C06000A0E036E9EEC3CF001C03EF002C03FF04F
:107C16003850300F0DEC3CF03A50300F0DEC3CF084
:107C26003C50300F0DEC3CF03E50300F0DEC3CF06C
:107C360012000BC00FF0106A116A0A340F3601E306
:107C460010800F50166E1650D8A407D0000E096E7D
:107C5600000E0A6E000E0B6E12000EC00FF0106AB8
:107C6600116A0D340F3601E310800F50176E17504E
:107C7600D8A407D0000E096E000E0A6E000E0B6E19
:107C86001200000E136E000E146E000E156E1750C5
:107C9600890F165E0BC017F00E50171A800E1716B6
:107CA6000A8EFF0E0916FF0E0A16000E0B160D8E13
:107CB600FF0E0C16FF0E0D16000E0E16180E126E87
:107CC600D8901336143615360C50095C0D500A58E8
:107CD6000E500B58D8A007D00C50095E0D500A5A0A
:107CE6000E500B5A1380D89009360A360B36122ED0
:107CF600E7D713C001F014C002F015C003F016C098
:107D060004F017C005F060EC3DF001C009F002C0B8
:107D16000AF003C00BF012001AC01EF01F6A206A98
:107D260019341E3601E31F801E50216E2150D8A43F
:107D360007D0000E186E000E196E000E1A6E120095
:107D46001DC01EF01F6A206A1C341E3601E31F8008
:107D56001E50266E2650D8A407D0000E186E000EB0
:107D6600196E000E1A6E120026507B0F21261AC0BD
:107D760026F01D50261A800E2616198E1C8EFF0E12
:107D86001B16FF0E1C16000E1D16000E226E000E90
:107D9600236E000E246E070E256E18A006D01B500B
:107DA60022261C5023221D502422D8901A32193222
:107DB6001832D8901B361C361D36252EEED7090EE6
:107DC600256E18A006D01B5022261C5023221D50BB
:107DD6002422D8901A3219321832D89024322332FB
:107DE6002232252EEED722C001F023C002F024C095
:107DF60003F021C004F026C005F060EC3DF001C0A0
:107E060018F002C019F003C01AF0120029C02BF0B6
:107E16002C6A2D6A28342B3601E32C802B50356EC4
:107E26003550D8A409D0000E276E000E286E000E1D
:107E3600296E000E2A6E1200170E2B6E27C02CF02C
:107E460028C02DF029C02EF02B282F6E04D0D890F4
:107E56002E322D322C322F2EFAD72C50306E288E01
:107E6600FF0E2716FF0E2816000E29162750316E14
:107E76002850326E2950336E346A8E0E355E35AE1A
:107E860016D03550800A8F0FD8B009D0000E276E55
:107E9600000E286E000E296E000E2A6E1200D89073
:107EA6003432333232323132353EF9D715D0170EED
:107EB60035640FD0000E276E000E286E000E296E58
:107EC600000E2A6E1200D8903136323633363436EA
:107ED60035063550D8A4F7D73050D8B408D0341E5C
:107EE600331E321E316C000E32223322342231C050
:107EF60027F032C028F033C029F034C02AF012002F
:107F0600000E826E000E836E000E826E000E806E74
:107F1600000E946E000E936E000E956E9268000E23
:107F2600C26E0E0EC16EB60EC06E070EB46E380E61
:107F360006EC3CF00F0E06EC3CF0010E06EC3CF0B5
:107F4600010EC26E000E446E000E456E000E466EA9
:107F5600000E436E000E426E800E06EC3CF014ECF2
:107F66003CF001C009F002C00AF038EC3CF009C050
:107F760044F00AC045F00BC046F044C027F045C0A7
:107F860028F046C029F009EC3FF027C036F028C09B
:107F960037F0B7EC3DF0000E1B6EC80E1C6E420E9D
:107FA6001D6E000E0C6E4C0E0D6E430E0E6E44C012
:107FB60009F045C00AF046C00BF01CEC3EF009C0C3
:107FC60018F00AC019F00BC01AF08FEC3EF018C07A
:107FD60027F019C028F01AC029F009EC3FF027C095
:107FE60042F028C043F0C00E06EC3CF042C009F057
:0A7FF60043C00AF018EC3DF0AFD7CD
:020000040020DA
:08000000FFFFFFFFFFFFFFFF00
:020000040030CA
:0E000000FF071F1FFF8385FF0FC00FE00F409B
:00000001FF
