:04000000BBEF3FF023
:107F76000001E9EF3FF0026E8B8002C08CFFD6EC69
:107F86003FF01200026E8B9002C08CFFD6EC3FF0E1
:107F96001200380EC5EC3FF00F0EC5EC3FF0010E97
:107FA600C5EC3FF012008B82410E016EEE0EE82EFC
:107FB600FED7012EFCD700D08B92410E016EEE0E3D
:107FC600E82EFED7012EFCD700D01200000E826EDE
:107FD600000E836E000E946E000E936E000E956E6C
:107FE6000F0EC16E070EB46ECCEC3FF0800EC5ECE2
:0A7FF6003FF0610EBEEC3FF0F9D73A
:020000040020DA
:08000000FFFFFFFFFFFFFFFF00
:020000040030CA
:0E000000FF071F1FFF8385FF0FC00FE00F409B
:00000001FF
