:040000006FEF3EF070
:107CDE00000183EF3FF0026E8B9002C08CFF91EC9F
:107CEE003EF01200026E8B8002C08CFF91EC3EF0D3
:107CFE001200C282C2B2FED7C450046E036AC350D1
:107D0E000324056E000E0420066E05C001F006C0A9
:107D1E0002F012008B82410E016EEE0EE82EFED79F
:107D2E00012EFCD700D08B92410E016EEE0EE82E86
:107D3E00FED7012EFCD700D01200000E066E02AE4A
:107D4E0006D0016C021ED8B0022A010E066E04AED9
:107D5E0004D0036C041ED8B0042A03500410D8B407
:107D6E0018D0010E056E04D0D89003360436052ABD
:107D7E0004AEFAD70350015C04500258D8A004D0C8
:107D8E000350015E0450025AD89004320332052E7D
:107D9E00F1D70650D8B404D0016C021ED8B0022A16
:107DAE0001C001F002C002F01200000E066E04AE19
:107DBE0006D0036C041ED8B0042A010E066E02AE65
:107DCE0006D0016C021ED8B0022A010E061A000E51
:107DDE00086E000E076E03500410D8B41CD0010EAE
:107DEE00056E04D0D89003360436052A04AEFAD7B1
:107DFE00D890073608360350015C04500258D8A0BC
:107E0E0005D00350015E0450025A0780D890043208
:107E1E000332052EEDD70650D8B404D0076C081ED9
:107E2E00D8B0082A07C001F008C002F0120009C03D
:107E3E0001F00AC002F0030E046EE80E036EDCECD5
:107E4E003EF001C00BF002C00CF009C001F00AC0F8
:107E5E0002F0030E046EE80E036EA4EC3EF001C0B9
:107E6E0013F002C014F013C001F014C002F0000EA3
:107E7E00046E640E036EDCEC3EF001C00DF002C029
:107E8E000EF013C001F014C002F0000E046E640E6A
:107E9E00036EA4EC3EF001C013F002C014F013C048
:107EAE0001F014C002F0000E046E0A0E036EDCEC3C
:107EBE003EF001C00FF002C010F013C001F014C06C
:107ECE0002F0000E046E0A0E036EA4EC3EF001C02A
:107EDE0011F002C012F00B50300F79EC3EF00D5045
:107EEE00300F79EC3EF00F50300F79EC3EF0115020
:107EFE00300F79EC3EF01200000E826E000E836E93
:107F0E00000E826E000E806E000E946E000E936E4A
:107F1E00000E956E9268000EC26E0E0EC16EB60EFB
:107F2E00C06E070EB46E380E72EC3EF00F0E72EC91
:107F3E003EF0010E72EC3EF0010EC26E000E166E99
:107F4E00000E156E800E72EC3EF080EC3EF001C01D
:107F5E0015F002C016F015C009F016C00AF01EEC9E
:107F6E003FF016BE0ED0165004E1BE0E155CD8A022
:107F7E0008D016BE39D0165004E1F10E155CD8A00B
:107F8E0033D016BE06D02D0E155C010E1658D8B085
:107F9E002DD016BE2BD0165004E1AA0E155CD8A01B
:107FAE0025D016BE0ED0165004E1F10E155CD8A0E9
:107FBE0008D016BE16D02C0E155C010E1658D8A081
:107FCE0010D016BEBFD7165004E1AB0E155CD8A06C
:107FDE00B9D716BE06D01650B5E1BE0E155CD8B098
:107FEE00B1D78128D8A402D08A68ACD7000E8A6E89
:027FFE00A9D701
:020000040020DA
:08000000FFFFFFFFFFFFFFFF00
:020000040030CA
:0E000000FF071F1FFF8385FF0FC00FE00F409B
:00000001FF
