:04000000B4EF3FF02A
:107F68000001D8EF3FF0026E8C9402C08AFFC5EC86
:107F78003FF01200026E8C8402C08AFFC5EC3FF00D
:107F880012008C86410E016EEE0EE82EFED7012EF1
:107F9800FCD700D08C96410E016EEE0EE82EFED76F
:107FA800012EFCD700D01200000E826E000E836EE8
:107FB800800E946E000E956E000E936E0F0EC16EBD
:107FC800070EB46E240EAC6E900EAB6E810EAF6EC3
:107FD800380EB7EC3FF00F0EB7EC3FF0010EB7ECE0
:107FE8003FF0730EBEEC3FF09EAAFED7AECF03F073
:087FF8000350BEEC3FF0F8D786
:020000040020DA
:08000000FFFFFFFFFFFFFFFF00
:020000040030CA
:0E000000FF021F1EFF8380FF0FC00FE00F40A6
:00000001FF
