:04000000B5EF3FF029
:107F56003F0006005B004F0066006D007D000700D5
:107F66007F006F00560EF66E7F0EF76E000EF86EEF
:107F760000EE1BF010EE14F00900F5CFEEFFE55011
:107F8600E150FAE10001C8EF3FF0000E816E000EED
:107F9600826E000E946E9368000E1A6E000E196EB5
:107FA600000E186E000E176E20EE1BF010EE03F09A
:107FB600130EDBCFE3FFE806FCE203C08BFF1A0ECD
:107FC600026E5E0E016E6E0EE82EFED7012EFCD7F7
:107FD600022EFAD700D081A0FED781B0FED7D89066
:107FE6001934D96E1A34DA6E030ED926000EDA2247
:0A7FF600DF508B6E194A1A2AEED7ED
:020000040020DA
:08000000FFFFFFFFFFFFFFFF00
:020000040030CA
:0E000000FF071F1FFF8385FF0FC00FE00F409B
:00000001FF
