:04000000C1EF3EF01E
:107D820000011DEF3FF0026E8B9002C08CFFD2EC1F
:107D92003EF01200026E8B8002C08CFFD2EC3EF0ED
:107DA20012008B82410E016EEE0EE82EFED7012EDE
:107DB200FCD700D08B92410E016EEE0EE82EFED75C
:107DC200012EFCD700D01200000E066E02AE06D0C5
:107DD200016C021ED8B0022A010E066E04AE04D057
:107DE200036C041ED8B0042A03500410D8B418D06F
:107DF200010E056E04D0D89003360436052A04AE6F
:107E0200FAD70350015C04500258D8A004D00350A2
:107E1200015E0450025AD89004320332052EF1D783
:107E22000650D8B404D0016C021ED8B0022A01C098
:107E320001F002C002F01200000E826E000E836E8C
:107E4200000E806E000E946E000E956E9268000E0B
:107E5200C26E0E0EC16EB60EC06E070EB46E9E9C42
:107E62009D8CF28E380EC4EC3EF00F0EC4EC3EF048
:107E7200010EC4EC3EF0010EC26E000E186E000E32
:107E8200176EC2829EACFDD7800EC4EC3EF0C45089
:107E9200166E156AC3501524176E000E1620186E42
:107EA20017C009F018C00AF09BEC3FF09E9CE9D77E
:107EB200000E066E04AE06D0036C041ED8B0042A6F
:107EC200010E066E02AE06D0016C021ED8B0022A66
:107ED200010E061A000E086E000E076E0350041003
:107EE200D8B41CD0010E056E04D0D89003360436E7
:107EF200052A04AEFAD7D890073608360350015C3B
:107F020004500258D8A005D00350015E0450025A12
:107F12000780D89004320332052EEDD70650D8B42C
:107F220004D0076C081ED8B0082A07C001F008C0A8
:107F320002F0120009C001F00AC002F0030E046E42
:107F4200E80E036E59EC3FF001C00BF002C00CF0DA
:107F520009C001F00AC002F0030E046EE80E036EBF
:107F6200E5EC3EF001C013F002C014F013C001F0C2
:107F720014C002F0000E046E640E036E59EC3FF062
:107F820001C00DF002C00EF013C001F014C002F0E7
:107F9200000E046E640E036EE5EC3EF001C013F0B9
:107FA20002C014F013C001F014C002F0000E046EFF
:107FB2000A0E036E59EC3FF001C00FF002C010F040
:107FC20013C001F014C002F0000E046E0A0E036E1C
:107FD200E5EC3EF001C011F002C012F00B50300F80
:107FE200CBEC3EF00D50300FCBEC3EF00F50300F8B
:0E7FF200CBEC3EF01150300FCBEC3EF0120005
:020000040020DA
:08000000FFFFFFFFFFFFFFFF00
:020000040030CA
:0E000000FF071F1FFF8385FF0FC00FE00F409B
:00000001FF
