:040000007EEF3FF060
:107EFC000001A2EF3FF0026E8B9002C08CFF8FEC62
:107F0C003FF01200026E8B8002C08CFF8FEC3FF0B2
:107F1C0012008B82410E016EEE0EE82EFED7012E62
:107F2C00FCD700D08B92410E016EEE0EE82EFED7E0
:107F3C00012EFCD700D01200000E826E000E836E54
:107F4C00800E946E000E956E0F0EC16E070EB46E01
:107F5C00240EAC6E900EAB6E810EAF6E380E81ECB3
:107F6C003FF00F0E81EC3FF0010E81EC3FF0000E64
:107F7C00186E000E176E18BE06D0185021E1060EB2
:107F8C00175CD8B01DD09EAAFED7030E1724D96E4D
:107F9C00000E1820DA6EAECFDFFF030E1724D96E59
:107FAC00000E1820DA6EDF5088EC3FF0174A182AC2
:107FBC0018BEE9D7185004E1060E175CD8A0E3D719
:107FCC00000E186E000E176E0CD0ACA2FED7030E6E
:107FDC001724D96E000E1820DA6EDF50AD6E174ADA
:107FEC00182A18BEF2D71850C2E1060E175CD8B08A
:047FFC00BED7EBD72A
:020000040020DA
:08000000FFFFFFFFFFFFFFFF00
:020000040030CA
:0E000000FF071F1FFF8385FF0FC00FE00F409B
:00000001FF
