:04000000C2EF3FF01C
:107F70003F0006005B004F0066006D007D000700BB
:107F80007F006F00700EF66E7F0EF76E000EF86EBB
:107F900000EE19F010EE14F00900F5CFEEFFE550F9
:107FA000E150FAE10001D5EF3FF0000E816E000EC6
:107FB000826E000E946E030E936E000E186E000E0D
:107FC000176E000E166E000E156E20EE19F010EEF4
:107FD00001F0130EDBCFE3FFE806FCE281A0FED741
:107FE00081B0FED7D8901734D96E1834DA6E010EEE
:107FF000D926000EDA22DF50826E174A182AEED7F1
:020000040020DA
:08000000FFFFFFFFFFFFFFFF00
:020000040030CA
:0E000000FF071F1FFF8385FF0FC00FE00F409B
:00000001FF
