:0400000007EF00F016
:10000800188209ED00F09BEF00F00600FACF01F02E
:10001800FBCF02F0E9CF03F0EACF04F0E1CF05F01F
:10002800E2CF06F0D9CF07F0DACF08F0F3CF09F026
:10003800F4CF0AF0F6CF0BF0F7CF0CF0F8CF0DF0B5
:10004800F5CF0EF018C00FF019C010F01AC011F05B
:100058001BC012F0F2A405D0164A172A144A152A12
:10006800F29412C01BF011C01AF010C019F00FC0A2
:1000780018F00EC0F5FF0DC0F8FF0CC0F7FF0BC05D
:10008800F6FF0AC0F4FF09C0F3FF08C0DAFF07C093
:10009800D9FF06C0E2FF05C0E1FF04C0EAFF03C0C4
:1000A800E9FF02C0FBFF01C0FAFF18921100000E21
:1000B800816E000E936EE00EF26E400ED56EC00E8D
:1000C800D56E0F0EC16E070EB46E8A908A92EE0E30
:1000D800161814E11E0E1718D8A410D08AA002D042
:1000E800010E01D0000EFF0A136E8A501318FE0B82
:1000F80013188A6E000E176E000E166EDC0E14189A
:10010800E6E13D0E1518D8A4E2D78AA202D0010E66
:1001180001D0000EFF0A136E13468A501318FD0B08
:1001280013188A6E000E156E000E146ED0D7176A5B
:10013800166A156A146A1890189200015BEF00F0AD
:020000040020DA
:08000000FFFFFFFFFFFFFFFF00
:020000040030CA
:0E000000FF071F1FFF8385FF0FC00FE00F409B
:00000001FF
